:1000000021C0CFC337C143C042C0FCC340C03FC0C2
:100010003EC03DC03CC03BC03AC039C038C00103FF
:100020000000040001020408102002020202020281
:100030000000000036000000000038000000000052
:100040003700450111241FBECFE5D1E0DEBFCDBF93
:1000500010E0A0E6B0E0E4E1FCE002C005900D9203
:10006000AE37B107D9F720E0AEE7B0E001C01D928E
:10007000A03AB207E1F710E0C2E2D0E003C0219756
:10008000FE01C0D5C132D107D1F7B8D3C1C5B8CFB1
:10009000623019F0643041F008958091940091E04D
:1000A000892780939400089580918F0091E089279B
:1000B00080938F0008950FB6F894A89581B5886154
:1000C00081BD11BC0FBE61E083E091D460E083E0AC
:1000D000DDD461E084E08BD460E084E0D7D461E0DB
:1000E00081E085D461E081E0D1D461E082E07FD419
:1000F00061E082E0CBD462E080E079D4E0917E00E0
:10010000F0917F0088E490E09383828384819581DD
:100110009F778F60958384830895F8948BB780626E
:100120008BBFA89A379880B5846080BD80B5886001
:1001300080BD80B58F6080BD85B7877E806185BFBB
:1001400085B7846885BF85B78B77806885BF85B79D
:10015000806285BF7894889585B78F7D85BFF89438
:1001600080B5807F80BD83E886B98CE087B97894BC
:1001700093D360939000709391008093920090933A
:10018000930008950F931F93CF93DF931F92CDB7E2
:10019000DEB7CE0101968ED0CE0101968FD090931E
:1001A00061008093600080918F008823D1F174D327
:1001B00060939000709391008093920090939300CD
:1001C0008091940081111BC062E370E084E0D2D37F
:1001D00080916000909161008C332FE09207B4F021
:1001E00060E082E053D461E081E050D48EE790E09B
:1001F000C3D20F90DF91CF911F910F91089561E0CD
:1002000084E0F5D361E084E041D4E2CF81519E40A7
:1002100061E08B32914008F460E082E037D460E026
:10022000E3CF61E084E0E3D360E084E02FD461E0D9
:1002300082E02CD461E081E029D42ED3009190009B
:10024000109191002091920030919300601B710BEE
:10025000820B930B683873418105910538F21CD3EA
:10026000609390007093910080939200909393001C
:1002700054DFBCCF1F920F920FB60F921124A89893
:100280000F900FBE0F901F90189506D360939000AB
:1002900070939100809392009093930082E690E097
:1002A00090937F0080937E0020E041E060E08EE745
:1002B00090E020C02FEFFC01208308958CE087B9E7
:1002C00062E070E080E090E01AD3369A3699FECF73
:1002D00084B185B1369A3699FECF84B125B1322FDB
:1002E000282F50E040E060E070E381E190E06ED4C0
:1002F000C9010895FC0162832383158214828FE76C
:100300008683413021F481E090E0958384830895D1
:10031000FC018481958181FF11C027813085621B9A
:10032000730BA081B18116962D913C9162177307D2
:1003300068F08D7F9583848381E00895268142173C
:10034000D9F38260958384837087678380E0089502
:10035000FC018481958183FF0FC021853285621B5A
:10036000730BA081B1811A962D913C91621773078E
:1003700018F0877F958384830895CF93DF93DC0102
:10038000ED91FC91A281B3811097B9F0EC012E811F
:100390004481558157FF0CC0ED91FC91119701905C
:1003A000F081E02D462FBC01CD01DF91CF91099462
:1003B000422FFD01DF91CF910994DF91CF910895F4
:1003C000DC0114962D913C911597522F51704517D1
:1003D000C9F022FF17C025FD15C01B964D915C91F9
:1003E0001C97641B750BED91FC9111974485558505
:1003F0006417750738F0206215963C932E93149776
:1004000064E0BBCF08950F931F93CF93DF93FC015C
:1004100024813581522F51704517C1F022FF16C03B
:100420008B01EC010190F081E02D26FF14C08D8539
:100430009E859B01281B390B8089918928173907D4
:1004400028F065E0CE0199DF1E870D87DF91CF91FF
:100450001F910F9108958B859C85AB01481B590B0B
:10046000868597854817590788F320643D832C8338
:10047000E8CFFC0124813581522F5170451739F0A6
:100480007487638724603583248360E076CF089582
:10049000FC012481358123FD04C02F7E3583248314
:1004A000089581859285681B790BA081B1811A9688
:1004B0008D919C916817790780F727FF03C02F77EC
:1004C000358324838481958180619583848363E06F
:1004D000CF0153CF0F931F93CF93DF93EC012C8168
:1004E0003D8122FD08C0277F3D832C83DF91CF9182
:1004F0001F910F910895E881F9818B859C85AB014F
:10050000481B590B808591854817590760F78B0167
:10051000848181FF02C0CE01BBDF8C819D8184FF7D
:1005200004C0877F9D838C83E1CF1A8709879C0154
:1005300028603D832C83E881F9812481358130FF57
:1005400002C08868EFCF62E0CE01DF91CF911F91AA
:100550000F9113CFCF93DF93EC019C8191704913DE
:1005600039C0E881F9818481958183709927892B2D
:1005700011F0CE01AFDF2C813D81A90140725527DA
:1005800025FF05C0E881F981848186FD26C026FF0C
:1005900005C0E881F981848187FD1FC023FF05C064
:1005A000E881F981848184FD18C080E024FF0AC0BD
:1005B000E881F9818481958165E0969587956A95B2
:1005C000E1F781702B783D832C83882341F066E02E
:1005D000452B31F4DF91CF91089581E0F3CF61E0B5
:1005E000CE01DF91CF91C9CEEF92FF921F93CF93AF
:1005F000DF93EC017B01142F4E833BDF412FB701CA
:10060000CE01DF91CF911F91FF90EF90A3CFCF93B9
:10061000DF93EC018C8187FF14C089859A85681B64
:10062000790BA881B9811A968D919C9168177907E9
:1006300040F062E0CE01A1DE8C819D818F779D83A9
:100640008C83DF91CF910895FF920F931F93CF93E7
:10065000DF93EC018B01F42EE881F981848195818F
:1006600083709927892B29F0CE01D1DFB801CE0103
:100670006FDEE881F981848182FF04C04F2DB801CB
:10068000CE019EDEE881F981848183FF04C04F2D75
:10069000B801CE01B8DE8E81F81649F04F2DB801B1
:1006A000CE01DF91CF911F910F91FF909DCFDF91F0
:1006B000CF911F910F91FF9008950F931F93CF93A8
:1006C000DF93EC01A881B98114968D919C911597C7
:1006D00091FF09C08C819D8190FD0AC091609D832E
:1006E0008C83788B6F87DF91CF911F910F91089545
:1006F0008F8598899B01281B390B52968D919C916F
:100700002817390780F38B0167E0CE0136DE188B9E
:100710000F87E9CFCF92DF92EF92FF921F93CF9393
:10072000DF93EC01162F88819981DC01ED91FC911A
:100730000190F081E02D09956B01CE01BEDF412FC4
:10074000B601CE01E5DD882379F08E818F3759F02F
:10075000412FB601CE01DF91CF911F91FF90EF9015
:10076000DF90CF9071CF1E83DF91CF911F91FF90CB
:10077000EF90DF90CF900895CF93DF93EC018881C5
:100780009981DC01ED91FC910280F381E02D6A8179
:100790000995682FCE01DF91CF91BCCF862FC5C1BF
:1007A0007BC01F920F920FB60F9211242F933F938D
:1007B0004F935F936F937F938F939F93AF93BF9369
:1007C000EF93FF938091950090919600892B29F0EB
:1007D000E0919500F09196000995FF91EF91BF91FE
:1007E000AF919F918F917F916F915F914F913F91C9
:1007F0002F910F900FBE0F901F901895AAD05BDC21
:10080000C1DCFECF1F920F920FB60F9211242F93CF
:100810003F938F939F93AF93BF9380919800909154
:100820009900A0919A00B0919B003091970026E02A
:10083000230F2D3768F129E8230F0396A11DB11D61
:10084000209397008093980090939900A0939A002A
:10085000B0939B0080919C0090919D00A0919E0080
:10086000B0919F000196A11DB11D80939C009093B3
:100870009D00A0939E00B0939F00BF91AF919F9168
:100880008F913F912F910F900FBE0F901F90189551
:100890000296A11DB11DD4CF2FB7F8946091980096
:1008A0007091990080919A0090919B002FBF0895BC
:1008B0003FB7F89480919C0090919D00A0919E007C
:1008C000B0919F0022B708B601FE05C02F3F19F076
:1008D0000196A11DB11D3FBFBA2FA92F982F8827C0
:1008E000BC01CD01620F711D811D911D43E0660F9A
:1008F000771F881F991F4A95D1F708950895CF92C1
:10090000DF92EF92FF92CF93DF936B017C01D0DFF8
:10091000EB01C114D104E104F10461F0EFDFC8DFA1
:100920006C1B7D0B683E7340A0F3C114D104E1043D
:10093000F10439F4DF91CF91FF90EF90DF90CF90E9
:10094000089581E0C81AD108E108F108C851DC4FC8
:10095000E6CF83E08ABD82E083BF789489B7826066
:1009600089BF80E48CBD8FEF8DBD84EC80BF83E8B0
:1009700086B908951F93CF93DF93182FEB0161E0A1
:1009800036D01C161D0634F060E0812FDF91CF9128
:100990001F917CC0CF3FD10514F061E0F6CFE12F6D
:1009A000F0E0E25EFF4FE491E13041F48AB5806807
:1009B0008ABDC9BDDF91CF911F910895E23029F41E
:1009C0008AB580628ABDC8BDF5CFE33029F480B70F
:1009D000806280BFCEBDEECFE43029F48CB580625A
:1009E0008CBDCBBDE7CFC038D105BCF6CDCFCF9302
:1009F000DF9387FF09C08F7771F1813071F1823009
:100A000071F1833071F18FEF90E0FC01EC5DFF4FED
:100A10002491865D9F4FFC0184918823C9F090E06A
:100A2000880F991FFC01E45CFF4FA591B491FC0174
:100A3000EA5CFF4FC591D491611115C09FB7F8943E
:100A40008C91209582238C938881282328839FBFB3
:100A5000DF91CF91089585E0D7CF82E0D5CF84E0B4
:100A6000D3CF83E0D1CF623051F49FB7F8943C915B
:100A7000822F809583238C93E8812E2BE7CF8FB72D
:100A8000F894EC912E2B2C938FBFE2CF87FF09C0F7
:100A90008F7771F1813071F1823071F1833071F1B2
:100AA0008FEF90E0FC01E25EFF4F3491FC01EC5DC2
:100AB000FF4F2491FC01E65DFF4FE491EE23B9F076
:100AC000332329F03130E1F48AB58F778ABDF0E025
:100AD000EE0FFF1FEA5CFF4FA591B4918FB7611134
:100AE00020C0F894EC9120952E232C938FBF08956D
:100AF00085E0D7CF82E0D5CF84E0D3CF83E0D1CFDC
:100B0000323019F48AB58F7DE1CF333021F480B7CC
:100B10008F7D80BFDCCF3430D1F68CB58F7D8CBD1E
:100B2000D6CFF894EC912E2BE0CF87FF09C08F77BA
:100B300001F1813001F1823001F1833001F18FEF59
:100B400090E0FC01EC5DFF4F2491FC01E65DFF4F5E
:100B5000E491EE23B1F0F0E0EE0FFF1FE05DFF4FF8
:100B6000A591B491EC91E22381E090E061F480E002
:100B7000089585E0E5CF82E0E3CF84E0E1CF83E034
:100B8000DFCF80E090E00895A1E21A2EAA1BBB1BE4
:100B9000FD010DC0AA1FBB1FEE1FFF1FA217B30749
:100BA000E407F50720F0A21BB30BE40BF50B661F5F
:100BB000771F881F991F1A9469F760957095809523
:100BC00090959B01AC01BD01CF010895052E97FBC7
:100BD00016F400940FD057FD05D0D6DF07FC02D0E5
:100BE00046F408C050954095309521953F4F4F4FA2
:100BF0005F4F089590958095709561957F4F8F4FC9
:100C00009F4F0895EE0FFF1F0590F491E02D09947A
:040C1000F894FFCF86
:100C1400A00F7A00000000001400C8009001E8034F
:0E0C2400E803C800881300000000D003CE03D0
:00000001FF
